:020000020000FC
:100000001FEF10932A0010E01093240000E00093EB
:10001000640000E200937C0007E800937A0007EC9C
:1000200010932B0000937A00F0917A00F6FF0C9465
:100030001B000C941400109179001030A1F01130C5
:1000400091F0123081F0103899F01A3AB1F01F3B5C
:10005000C9F01C3CE1F0153DF9F01B3D11F11F3DCD
:1000600029F10C94120086E080932B000C945B0025
:100070008BE580932B000C945B008FE480932B0026
:100080000C945B0086E680932B000C945B008DE65D
:1000900080932B000C945B008DE780932B000C94D5
:1000A0005B0087E080932B000C945B008FE78093CC
:1000B0002B000C945B0022E030EA43E94A95F1F70B
:0E00C0003A95E1F72A95D1F700000C94120052
:00000001FF
