:020000020000FC
:040000000C9400015B
:040048000C9400070D
:1002000000E90093C10006E00093C20007E60093F6
:10021000C40000E00093C5000FEF04B907B9302F08
:0602200078940C94000527
:100A00000C94000559E266E970E87A95F1F76A9569
:080A1000E1F75A95D1F70895B2
:100E00003091C600303300915F0081993FE3313368
:100E100000915F00819936E8323300915F0081993B
:100E20003BE5333300915F0081993FEC343300910F
:100E30005F00819936E6353300915F0081993DEE80
:100E4000363300915F0081993DE7373300915F00B1
:100E5000819937E8383300915F0081993FE7393352
:100E600000915F00819937EE313400915F008199E4
:100E700037E7323400915F0081993CEF33340091C1
:100E80005F00819939E3343400915F0081993EED30
:100E9000353400915F00819939E7363400915F0065
:100EA000819931EF132F1F70232F279527952795B1
:100EB00027952F7015B928B90E9402050E940205D6
:060EC0000E9402051895D6
:00000001FF
