:020000020000FC
:100000000FEF0AB904B900E007B944E80C943A00CC
:1000100031E035B926B12F70203061F5331F35B985
:1000200026B12F70203031F5331F35B926B12F702E
:10003000203001F5331F35B926B12F702030D1F4AF
:100040000C94080059E266E970E87A95F1F76A9530
:10005000E1F75A95D1F70895221F221F221F221F70
:10006000322B432F0E94220016B11F701030E1F78F
:100070000C943A00221F221F221F221F322B432FD3
:10008000443101F1483809F1443811F1423819F18D
:10009000483421F1443429F1423431F1483239F104
:1000A000443241F1423249F1413851F1413459F180
:1000B000413261F1413169F1423171F1483179F1F7
:1000C0000C9408004FE30C94920046E80C949200C4
:1000D0004BE50C9492004FEC0C94920046E60C9485
:1000E00092004DEE0C9492004DE70C94920047EC78
:1000F0000C9492004FE70C9492004FEE0C949200F7
:1001000047E70C9492004CEF0C94920049E30C9456
:1001100092004EED0C94920049E70C94920041EF4E
:0A0120000C9492004BB90C940800F7
:00000001FF
