:020000020000FC
:100000000FEF0AB900E040E007B944B9B1E0A5E557
:1000100030E00C940B0046B1469520F0469580F0F8
:100020000C940B0046B14695E8F33395469503B121
:10003000000F000F402B4D930C9463000C940B00A9
:1000400046B146954695E0F3303039F05E915BB9A4
:100050003A950C9463000C940B0046B1469510F34E
:100060008FEF9FEF9BB90000000000000000000030
:100070000000000000000000000000000000000080
:10008000000000000000000000009A9561F78A95CA
:1000900051F79BB98FEF9FEF0000000000000000B8
:1000A0000000000000000000000000000000000050
:1000B000000000000000000000009A9569F78A9592
:1000C00059F70C942D009FEF7FEF00000000000017
:1000D0000000000000000000000000000000000020
:1000E000000000000000000000009A9571F78A955A
:0600F00059F70C940B000F
:00000001FF
