:020000020000FC
:100000000FEF0AB904B900E007B911E020E04FEFA3
:1000100030E00C940B0006B1003079F0069510F436
:100020000E948F00069510F40C949800069508F431
:100030002095069510F40C94A800203009F0109536
:1000400025B91BB9203009F010950E949D00110FB1
:1000500010F711E02BB90C942F001695169506B1E8
:10006000003079F0069510F40E948F00069510F488
:100070000C949800069508F42095069510F40C94BD
:10008000A80020FD10952BB915B920FD10950E94F0
:100090009D00110F110F110F00F71695169525B938
:1000A00010E206B1003079F0069510F40E948F003E
:1000B000069510F40C949800069508F42095069582
:1000C00010F40C94A80020FD10952BB915B920FD53
:1000D00010950E949D00169520F725B910E806B1ED
:1000E000003079F0069510F40E948F00069510F408
:1000F0000C949800069508F42095069510F40C943D
:10010000A80020FD109525B91BB920FD10950E946F
:100110009D00169520F711E02BB90C940B0006B149
:100120000695E8F30E949D0006B10695E8F708954C
:100130003BB935B911E00C940B0065E24FEF5FEF6E
:1001400000005A95E9F74A95D1F76A95B9F70895ED
:0801500000E005B90BB9FCCF7A
:00000001FF
