:020000020000FC
:1000000000E0009327002FEF20932A0000912600A4
:10001000849B0C9406000C940D00003101F1013119
:1000200009F1023111F1033119F1043121F10531E6
:1000300029F1063131F1073139F1083141F1093146
:1000400049F10A3151F10B3159F10C3161F10D31A6
:1000500069F10E3171F10F3179F10C9406002EE740
:100060000C945F0020E30C945F002DE60C945F007D
:1000700029E70C945F0023E30C945F002BE50C94BC
:100080005F002FE10C945F0021E70C945F002FE7E5
:100090000C945F0023E70C945F0027E70C945F004B
:1000A0002FE10C945F002EE40C945F002DE30C9480
:1000B0005F002FE40C945F0027E40C945F00209312
:0600C0002B000C94060069
:00000001FF
